{
  "contractName": "Ticket",
  "abi": [
    {
      "constant": true,
      "inputs": [
        {
          "name": "",
          "type": "bytes32"
        }
      ],
      "name": "ticketsByTicketId",
      "outputs": [
        {
          "name": "ticketId",
          "type": "bytes32"
        },
        {
          "name": "eventId",
          "type": "bytes32"
        },
        {
          "name": "userId",
          "type": "bytes32"
        },
        {
          "name": "isValid",
          "type": "bool"
        },
        {
          "name": "blockId",
          "type": "uint256"
        },
        {
          "name": "gasFee",
          "type": "uint256"
        },
        {
          "name": "blockTimestamp",
          "type": "uint256"
        },
        {
          "name": "transactionId",
          "type": "bytes32"
        }
      ],
      "payable": false,
      "stateMutability": "view",
      "type": "function",
      "signature": "0x441d9a99"
    },
    {
      "constant": true,
      "inputs": [
        {
          "name": "",
          "type": "bytes32"
        },
        {
          "name": "",
          "type": "uint256"
        }
      ],
      "name": "ticketsByUserId",
      "outputs": [
        {
          "name": "",
          "type": "bytes32"
        }
      ],
      "payable": false,
      "stateMutability": "view",
      "type": "function",
      "signature": "0x54f9e043"
    },
    {
      "constant": true,
      "inputs": [
        {
          "name": "",
          "type": "bytes32"
        },
        {
          "name": "",
          "type": "uint256"
        }
      ],
      "name": "ticketsByEventId",
      "outputs": [
        {
          "name": "",
          "type": "bytes32"
        }
      ],
      "payable": false,
      "stateMutability": "view",
      "type": "function",
      "signature": "0xb074d73e"
    },
    {
      "anonymous": false,
      "inputs": [
        {
          "indexed": true,
          "name": "ticketId",
          "type": "bytes32"
        },
        {
          "indexed": true,
          "name": "eventId",
          "type": "bytes32"
        },
        {
          "indexed": true,
          "name": "userId",
          "type": "bytes32"
        }
      ],
      "name": "TicketCreated",
      "type": "event",
      "signature": "0xb75288dccd443f97929dfde7517d7efe0c13847c5bd0a6640588750e318baa21"
    },
    {
      "anonymous": false,
      "inputs": [
        {
          "indexed": true,
          "name": "ticketId",
          "type": "bytes32"
        },
        {
          "indexed": true,
          "name": "eventId",
          "type": "bytes32"
        },
        {
          "indexed": true,
          "name": "userId",
          "type": "bytes32"
        }
      ],
      "name": "TicketInvalidated",
      "type": "event",
      "signature": "0x8791e224fdc9b825eb0a3caadb7335559649927008c5ee4d755ec6e0757bf356"
    },
    {
      "constant": false,
      "inputs": [
        {
          "name": "eventId",
          "type": "bytes32"
        },
        {
          "name": "userId",
          "type": "bytes32"
        }
      ],
      "name": "createTicket",
      "outputs": [
        {
          "name": "",
          "type": "bytes32"
        }
      ],
      "payable": false,
      "stateMutability": "nonpayable",
      "type": "function",
      "signature": "0x272eb30c"
    },
    {
      "constant": true,
      "inputs": [
        {
          "name": "userId",
          "type": "bytes32"
        }
      ],
      "name": "getTicketsByUser",
      "outputs": [
        {
          "components": [
            {
              "name": "ticketId",
              "type": "bytes32"
            },
            {
              "name": "eventId",
              "type": "bytes32"
            },
            {
              "name": "userId",
              "type": "bytes32"
            },
            {
              "name": "isValid",
              "type": "bool"
            },
            {
              "name": "blockId",
              "type": "uint256"
            },
            {
              "name": "gasFee",
              "type": "uint256"
            },
            {
              "name": "blockTimestamp",
              "type": "uint256"
            },
            {
              "name": "transactionId",
              "type": "bytes32"
            }
          ],
          "name": "",
          "type": "tuple[]"
        }
      ],
      "payable": false,
      "stateMutability": "view",
      "type": "function",
      "signature": "0x4d81c7b8"
    },
    {
      "constant": true,
      "inputs": [
        {
          "name": "eventId",
          "type": "bytes32"
        }
      ],
      "name": "getTicketsByEvent",
      "outputs": [
        {
          "components": [
            {
              "name": "ticketId",
              "type": "bytes32"
            },
            {
              "name": "eventId",
              "type": "bytes32"
            },
            {
              "name": "userId",
              "type": "bytes32"
            },
            {
              "name": "isValid",
              "type": "bool"
            },
            {
              "name": "blockId",
              "type": "uint256"
            },
            {
              "name": "gasFee",
              "type": "uint256"
            },
            {
              "name": "blockTimestamp",
              "type": "uint256"
            },
            {
              "name": "transactionId",
              "type": "bytes32"
            }
          ],
          "name": "",
          "type": "tuple[]"
        }
      ],
      "payable": false,
      "stateMutability": "view",
      "type": "function",
      "signature": "0x0cae5671"
    },
    {
      "constant": false,
      "inputs": [
        {
          "name": "ticketId",
          "type": "bytes32"
        }
      ],
      "name": "invalidateTicket",
      "outputs": [],
      "payable": false,
      "stateMutability": "nonpayable",
      "type": "function",
      "signature": "0xcb321867"
    },
    {
      "constant": true,
      "inputs": [
        {
          "name": "ticketId",
          "type": "bytes32"
        }
      ],
      "name": "getTicketDetails",
      "outputs": [
        {
          "components": [
            {
              "name": "ticketId",
              "type": "bytes32"
            },
            {
              "name": "eventId",
              "type": "bytes32"
            },
            {
              "name": "userId",
              "type": "bytes32"
            },
            {
              "name": "isValid",
              "type": "bool"
            },
            {
              "name": "blockId",
              "type": "uint256"
            },
            {
              "name": "gasFee",
              "type": "uint256"
            },
            {
              "name": "blockTimestamp",
              "type": "uint256"
            },
            {
              "name": "transactionId",
              "type": "bytes32"
            }
          ],
          "name": "",
          "type": "tuple"
        }
      ],
      "payable": false,
      "stateMutability": "view",
      "type": "function",
      "signature": "0xb64dec65"
    }
  ],
  "bytecode": "0x608060405234801561001057600080fd5b50611236806100206000396000f3fe60806040526004361061008e576000357c0100000000000000000000000000000000000000000000000000000000900463ffffffff1680630cae567114610093578063272eb30c146100d0578063441d9a991461010d5780634d81c7b81461015157806354f9e0431461018e578063b074d73e146101cb578063b64dec6514610208578063cb32186714610245575b600080fd5b34801561009f57600080fd5b506100ba60048036036100b59190810190610c54565b61026e565b6040516100c7919061100c565b60405180910390f35b3480156100dc57600080fd5b506100f760048036036100f29190810190610c7d565b61043e565b604051610104919061102e565b60405180910390f35b34801561011957600080fd5b50610134600480360361012f9190810190610c54565b6106d0565b604051610148989796959493929190611049565b60405180910390f35b34801561015d57600080fd5b5061017860048036036101739190810190610c54565b610725565b604051610185919061100c565b60405180910390f35b34801561019a57600080fd5b506101b560048036036101b09190810190610cb9565b6108f5565b6040516101c2919061102e565b60405180910390f35b3480156101d757600080fd5b506101f260048036036101ed9190810190610cb9565b610925565b6040516101ff919061102e565b60405180910390f35b34801561021457600080fd5b5061022f600480360361022a9190810190610c54565b610955565b60405161023c9190611187565b60405180910390f35b34801561025157600080fd5b5061026c60048036036102679190810190610c54565b610a2d565b005b6060600060010282141515156102b9576040517f08c379a00000000000000000000000000000000000000000000000000000000081526004016102b090611167565b60405180910390fd5b60606002600084815260200190815260200160002080548060200260200160405190810160405280929190818152602001828054801561031857602002820191906000526020600020905b815481526020019060010190808311610304575b505050505090506060815160405190808252806020026020018201604052801561035c57816020015b610349610b84565b8152602001906001900390816103415790505b50905060008090505b8251811015610433576000838281518110151561037e57fe5b90602001906020020151905060008082815260200190815260200160002061010060405190810160405290816000820154815260200160018201548152602001600282015481526020016003820160009054906101000a900460ff16151515158152602001600482015481526020016005820154815260200160068201548152602001600782015481525050838381518110151561041857fe5b90602001906020020181905250508080600101915050610365565b508092505050919050565b6000806001028314151515610488576040517f08c379a000000000000000000000000000000000000000000000000000000000815260040161047f90611167565b60405180910390fd5b600060010282141515156104d1576040517f08c379a00000000000000000000000000000000000000000000000000000000081526004016104c8906110e7565b60405180910390fd5b6003600081548092919060010191905055506305f5e0ff6003541115151561052e576040517f08c379a000000000000000000000000000000000000000000000000000000000815260040161052590611127565b60405180910390fd5b60006003546001029050610540610bd8565b610100604051908101604052808381526020018681526020018581526020016001151581526020014381526020013a815260200142815260200160603373ffffffffffffffffffffffffffffffffffffffff169060020a0260010281525090508060008084815260200190815260200160002060008201518160000155602082015181600101556040820151816002015560608201518160030160006101000a81548160ff0219169083151502179055506080820151816004015560a0820151816005015560c0820151816006015560e0820151816007015590505060016000858152602001908152602001600020829080600181540180825580915050906001820390600052602060002001600090919290919091505550600260008681526020019081526020016000208290806001815401808255809150509060018203906000526020600020016000909192909190915055508385837fb75288dccd443f97929dfde7517d7efe0c13847c5bd0a6640588750e318baa2160405160405180910390a4819250505092915050565b60006020528060005260406000206000915090508060000154908060010154908060020154908060030160009054906101000a900460ff16908060040154908060050154908060060154908060070154905088565b606060006001028214151515610770576040517f08c379a0000000000000000000000000000000000000000000000000000000008152600401610767906110e7565b60405180910390fd5b6060600160008481526020019081526020016000208054806020026020016040519081016040528092919081815260200182805480156107cf57602002820191906000526020600020905b8154815260200190600101908083116107bb575b505050505090506060815160405190808252806020026020018201604052801561081357816020015b610800610b84565b8152602001906001900390816107f85790505b50905060008090505b82518110156108ea576000838281518110151561083557fe5b90602001906020020151905060008082815260200190815260200160002061010060405190810160405290816000820154815260200160018201548152602001600282015481526020016003820160009054906101000a900460ff1615151515815260200160048201548152602001600582015481526020016006820154815260200160078201548152505083838151811015156108cf57fe5b9060200190602002018190525050808060010191505061081c565b508092505050919050565b60016020528160005260406000208181548110151561091057fe5b90600052602060002001600091509150505481565b60026020528160005260406000208181548110151561094057fe5b90600052602060002001600091509150505481565b61095d610bd8565b600060010282141515156109a6576040517f08c379a000000000000000000000000000000000000000000000000000000000815260040161099d90611107565b60405180910390fd5b60008083815260200190815260200160002061010060405190810160405290816000820154815260200160018201548152602001600282015481526020016003820160009054906101000a900460ff161515151581526020016004820154815260200160058201548152602001600682015481526020016007820154815250509050919050565b60006001028114151515610a76576040517f08c379a0000000000000000000000000000000000000000000000000000000008152600401610a6d90611107565b60405180910390fd5b600080600083815260200190815260200160002090506000600102816001015414151515610ad9576040517f08c379a0000000000000000000000000000000000000000000000000000000008152600401610ad090611147565b60405180910390fd5b8060030160009054906101000a900460ff161515610b2c576040517f08c379a0000000000000000000000000000000000000000000000000000000008152600401610b23906110c7565b60405180910390fd5b60008160030160006101000a81548160ff02191690831515021790555080600201548160010154837f8791e224fdc9b825eb0a3caadb7335559649927008c5ee4d755ec6e0757bf35660405160405180910390a45050565b61010060405190810160405280600080191681526020016000801916815260200160008019168152602001600015158152602001600081526020016000815260200160008152602001600080191681525090565b61010060405190810160405280600080191681526020016000801916815260200160008019168152602001600015158152602001600081526020016000815260200160008152602001600080191681525090565b6000610c3882356111e8565b905092915050565b6000610c4c82356111f2565b905092915050565b600060208284031215610c6657600080fd5b6000610c7484828501610c2c565b91505092915050565b60008060408385031215610c9057600080fd5b6000610c9e85828601610c2c565b9250506020610caf85828601610c2c565b9150509250929050565b60008060408385031215610ccc57600080fd5b6000610cda85828601610c2c565b9250506020610ceb85828601610c40565b9150509250929050565b6000610d00826111b0565b808452602084019350610d12836111a3565b60005b82811015610d4557610d28868351610f5b565b610d31826111bb565b915061010086019550600181019050610d15565b50849250505092915050565b610d5a816111c8565b82525050565b610d69816111d4565b82525050565b6000601982527f5469636b657420697320616c726561647920696e76616c6964000000000000006020830152604082019050919050565b6000600f82527f496e76616c6964207573657220494400000000000000000000000000000000006020830152604082019050919050565b6000601182527f496e76616c6964207469636b65742049440000000000000000000000000000006020830152604082019050919050565b6000601f82527f4d6178696d756d207469636b6574204944206c696d69742072656163686564006020830152604082019050919050565b6000601582527f5469636b657420646f6573206e6f7420657869737400000000000000000000006020830152604082019050919050565b6000601082527f496e76616c6964206576656e74204944000000000000000000000000000000006020830152604082019050919050565b61010082016000820151610ed06000850182610d60565b506020820151610ee36020850182610d60565b506040820151610ef66040850182610d60565b506060820151610f096060850182610d51565b506080820151610f1c6080850182610ffd565b5060a0820151610f2f60a0850182610ffd565b5060c0820151610f4260c0850182610ffd565b5060e0820151610f5560e0850182610d60565b50505050565b61010082016000820151610f726000850182610d60565b506020820151610f856020850182610d60565b506040820151610f986040850182610d60565b506060820151610fab6060850182610d51565b506080820151610fbe6080850182610ffd565b5060a0820151610fd160a0850182610ffd565b5060c0820151610fe460c0850182610ffd565b5060e0820151610ff760e0850182610d60565b50505050565b611006816111de565b82525050565b600060208201905081810360008301526110268184610cf5565b905092915050565b60006020820190506110436000830184610d60565b92915050565b60006101008201905061105f600083018b610d60565b61106c602083018a610d60565b6110796040830189610d60565b6110866060830188610d51565b6110936080830187610ffd565b6110a060a0830186610ffd565b6110ad60c0830185610ffd565b6110ba60e0830184610d60565b9998505050505050505050565b600060208201905081810360008301526110e081610d6f565b9050919050565b6000602082019050818103600083015261110081610da6565b9050919050565b6000602082019050818103600083015261112081610ddd565b9050919050565b6000602082019050818103600083015261114081610e14565b9050919050565b6000602082019050818103600083015261116081610e4b565b9050919050565b6000602082019050818103600083015261118081610e82565b9050919050565b60006101008201905061119d6000830184610eb9565b92915050565b6000602082019050919050565b600081519050919050565b6000602082019050919050565b60008115159050919050565b6000819050919050565b6000819050919050565b6000819050919050565b600081905091905056fea265627a7a7230582005281f0962bb17dd437fac0728566339b36ffbecc69316f26e36f77f98920c3e6c6578706572696d656e74616cf50037",
  "source": "pragma solidity >=0.5.0 <0.9.0;\r\npragma experimental ABIEncoderV2;\r\n\r\ncontract Ticket {\r\n    struct Tickets {\r\n        bytes32 ticketId;\r\n        bytes32 eventId;\r\n        bytes32 userId;\r\n        bool isValid;\r\n        uint256 blockId;\r\n        uint256 gasFee;\r\n        uint256 blockTimestamp;\r\n        bytes32 transactionId;\r\n    }\r\n\r\n    mapping(bytes32 => Tickets) public ticketsByTicketId;\r\n    mapping(bytes32 => bytes32[]) public ticketsByUserId;\r\n    mapping(bytes32 => bytes32[]) public ticketsByEventId;\r\n\r\n    event TicketCreated(bytes32 indexed ticketId, bytes32 indexed eventId, bytes32 indexed userId);\r\n    event TicketInvalidated(bytes32 indexed ticketId, bytes32 indexed eventId, bytes32 indexed userId);\r\n\r\n    uint256 private lastTicketId;\r\n\r\n    function createTicket(bytes32 eventId, bytes32 userId) external returns (bytes32) {\r\n        require(eventId != bytes32(0), \"Invalid event ID\");\r\n        require(userId != bytes32(0), \"Invalid user ID\");\r\n\r\n        lastTicketId++;\r\n        require(lastTicketId <= 99999999, \"Maximum ticket ID limit reached\");\r\n\r\n        bytes32 ticketId = bytes32(lastTicketId);\r\n\r\n        Tickets memory newTicket = Tickets({\r\n            ticketId: ticketId,\r\n            eventId: eventId,\r\n            userId: userId,\r\n            isValid: true,\r\n            blockId: block.number,\r\n            gasFee: tx.gasprice,\r\n            blockTimestamp: block.timestamp,\r\n            transactionId: bytes32(uint256(msg.sender) << 96)\r\n        });\r\n\r\n        ticketsByTicketId[ticketId] = newTicket;\r\n        ticketsByUserId[userId].push(ticketId);\r\n        ticketsByEventId[eventId].push(ticketId);\r\n\r\n        emit TicketCreated(ticketId, eventId, userId);\r\n\r\n        return ticketId;\r\n    }\r\n\r\n    function getTicketsByUser(bytes32 userId) external view returns (Tickets[] memory) {\r\n        require(userId != bytes32(0), \"Invalid user ID\");\r\n\r\n        bytes32[] memory ticketIds = ticketsByUserId[userId];\r\n        Tickets[] memory userTickets = new Tickets[](ticketIds.length);\r\n\r\n        for (uint256 i = 0; i < ticketIds.length; i++) {\r\n            bytes32 ticketId = ticketIds[i];\r\n            userTickets[i] = ticketsByTicketId[ticketId];\r\n        }\r\n\r\n        return userTickets;\r\n    }\r\n\r\n    function getTicketsByEvent(bytes32 eventId) external view returns (Tickets[] memory) {\r\n        require(eventId != bytes32(0), \"Invalid event ID\");\r\n\r\n        bytes32[] memory ticketIds = ticketsByEventId[eventId];\r\n        Tickets[] memory eventTickets = new Tickets[](ticketIds.length);\r\n\r\n        for (uint256 i = 0; i < ticketIds.length; i++) {\r\n            bytes32 ticketId = ticketIds[i];\r\n            eventTickets[i] = ticketsByTicketId[ticketId];\r\n        }\r\n\r\n        return eventTickets;\r\n    }\r\n\r\n    function invalidateTicket(bytes32 ticketId) external {\r\n        require(ticketId != bytes32(0), \"Invalid ticket ID\");\r\n\r\n        Tickets storage ticket = ticketsByTicketId[ticketId];\r\n\r\n        require(ticket.eventId != bytes32(0), \"Ticket does not exist\");\r\n        require(ticket.isValid, \"Ticket is already invalid\");\r\n\r\n        ticket.isValid = false;\r\n\r\n        emit TicketInvalidated(ticketId, ticket.eventId, ticket.userId);\r\n    }\r\n\r\n    function getTicketDetails(bytes32 ticketId) external view returns (Tickets memory) {\r\n        require(ticketId != bytes32(0), \"Invalid ticket ID\");\r\n\r\n        return ticketsByTicketId[ticketId];\r\n    }\r\n}\r\n",
  "sourcePath": "D:/D drive/Hostify/contracts/Ticket.sol",
  "compiler": {
    "name": "solc",
    "version": "0.5.0+commit.1d4f565a.Emscripten.clang"
  },
  "schemaVersion": "3.0.1",
  "updatedAt": "2023-06-13T15:46:40.590Z",
  "devdoc": {
    "methods": {}
  },
  "userdoc": {
    "methods": {}
  }
}